{
    "_format": "hh-sol-artifact-1",
    "contractName": "eventNFT",
    "sourceName": "contracts/mainEvent.sol",
    "abi": [
        {
            "inputs": [],
            "stateMutability": "nonpayable",
            "type": "constructor"
        },
        {
            "anonymous": false,
            "inputs": [
                {
                    "indexed": true,
                    "internalType": "address",
                    "name": "account",
                    "type": "address"
                },
                {
                    "indexed": true,
                    "internalType": "address",
                    "name": "operator",
                    "type": "address"
                },
                {
                    "indexed": false,
                    "internalType": "bool",
                    "name": "approved",
                    "type": "bool"
                }
            ],
            "name": "ApprovalForAll",
            "type": "event"
        },
        {
            "anonymous": false,
            "inputs": [
                {
                    "indexed": true,
                    "internalType": "address",
                    "name": "operator",
                    "type": "address"
                },
                {
                    "indexed": true,
                    "internalType": "address",
                    "name": "from",
                    "type": "address"
                },
                {
                    "indexed": true,
                    "internalType": "address",
                    "name": "to",
                    "type": "address"
                },
                {
                    "indexed": false,
                    "internalType": "uint256[]",
                    "name": "ids",
                    "type": "uint256[]"
                },
                {
                    "indexed": false,
                    "internalType": "uint256[]",
                    "name": "values",
                    "type": "uint256[]"
                }
            ],
            "name": "TransferBatch",
            "type": "event"
        },
        {
            "anonymous": false,
            "inputs": [
                {
                    "indexed": true,
                    "internalType": "address",
                    "name": "operator",
                    "type": "address"
                },
                {
                    "indexed": true,
                    "internalType": "address",
                    "name": "from",
                    "type": "address"
                },
                {
                    "indexed": true,
                    "internalType": "address",
                    "name": "to",
                    "type": "address"
                },
                {
                    "indexed": false,
                    "internalType": "uint256",
                    "name": "id",
                    "type": "uint256"
                },
                {
                    "indexed": false,
                    "internalType": "uint256",
                    "name": "value",
                    "type": "uint256"
                }
            ],
            "name": "TransferSingle",
            "type": "event"
        },
        {
            "anonymous": false,
            "inputs": [
                {
                    "indexed": false,
                    "internalType": "string",
                    "name": "value",
                    "type": "string"
                },
                {
                    "indexed": true,
                    "internalType": "uint256",
                    "name": "id",
                    "type": "uint256"
                }
            ],
            "name": "URI",
            "type": "event"
        },
        {
            "inputs": [
                {
                    "internalType": "address",
                    "name": "account",
                    "type": "address"
                },
                {
                    "internalType": "uint256",
                    "name": "id",
                    "type": "uint256"
                }
            ],
            "name": "balanceOf",
            "outputs": [
                {
                    "internalType": "uint256",
                    "name": "",
                    "type": "uint256"
                }
            ],
            "stateMutability": "view",
            "type": "function"
        },
        {
            "inputs": [
                {
                    "internalType": "address[]",
                    "name": "accounts",
                    "type": "address[]"
                },
                {
                    "internalType": "uint256[]",
                    "name": "ids",
                    "type": "uint256[]"
                }
            ],
            "name": "balanceOfBatch",
            "outputs": [
                {
                    "internalType": "uint256[]",
                    "name": "",
                    "type": "uint256[]"
                }
            ],
            "stateMutability": "view",
            "type": "function"
        },
        {
            "inputs": [
                {
                    "internalType": "uint256",
                    "name": "",
                    "type": "uint256"
                }
            ],
            "name": "eventInfo",
            "outputs": [
                {
                    "internalType": "uint256",
                    "name": "eventID",
                    "type": "uint256"
                },
                {
                    "internalType": "string",
                    "name": "name",
                    "type": "string"
                },
                {
                    "internalType": "string",
                    "name": "description",
                    "type": "string"
                },
                {
                    "internalType": "string",
                    "name": "imageURI",
                    "type": "string"
                },
                {
                    "internalType": "uint256",
                    "name": "ticketID",
                    "type": "uint256"
                },
                {
                    "internalType": "uint256",
                    "name": "ticketCount",
                    "type": "uint256"
                },
                {
                    "internalType": "uint256",
                    "name": "ticketPrice",
                    "type": "uint256"
                }
            ],
            "stateMutability": "view",
            "type": "function"
        },
        {
            "inputs": [
                {
                    "internalType": "address",
                    "name": "",
                    "type": "address"
                }
            ],
            "name": "eventOwner",
            "outputs": [
                {
                    "internalType": "uint256",
                    "name": "eventID",
                    "type": "uint256"
                },
                {
                    "internalType": "string",
                    "name": "name",
                    "type": "string"
                },
                {
                    "internalType": "string",
                    "name": "description",
                    "type": "string"
                },
                {
                    "internalType": "string",
                    "name": "imageURI",
                    "type": "string"
                },
                {
                    "internalType": "uint256",
                    "name": "ticketID",
                    "type": "uint256"
                },
                {
                    "internalType": "uint256",
                    "name": "ticketCount",
                    "type": "uint256"
                },
                {
                    "internalType": "uint256",
                    "name": "ticketPrice",
                    "type": "uint256"
                }
            ],
            "stateMutability": "view",
            "type": "function"
        },
        {
            "inputs": [],
            "name": "getEvents",
            "outputs": [
                {
                    "components": [
                        {
                            "internalType": "uint256",
                            "name": "eventID",
                            "type": "uint256"
                        },
                        {
                            "internalType": "string",
                            "name": "name",
                            "type": "string"
                        },
                        {
                            "internalType": "string",
                            "name": "description",
                            "type": "string"
                        },
                        {
                            "internalType": "string",
                            "name": "imageURI",
                            "type": "string"
                        },
                        {
                            "internalType": "uint256",
                            "name": "ticketID",
                            "type": "uint256"
                        },
                        {
                            "internalType": "uint256",
                            "name": "ticketCount",
                            "type": "uint256"
                        },
                        {
                            "internalType": "uint256",
                            "name": "ticketPrice",
                            "type": "uint256"
                        }
                    ],
                    "internalType": "struct eventNFT.eventDetails[]",
                    "name": "",
                    "type": "tuple[]"
                }
            ],
            "stateMutability": "view",
            "type": "function"
        },
        {
            "inputs": [
                {
                    "internalType": "address",
                    "name": "account",
                    "type": "address"
                },
                {
                    "internalType": "address",
                    "name": "operator",
                    "type": "address"
                }
            ],
            "name": "isApprovedForAll",
            "outputs": [
                {
                    "internalType": "bool",
                    "name": "",
                    "type": "bool"
                }
            ],
            "stateMutability": "view",
            "type": "function"
        },
        {
            "inputs": [
                {
                    "internalType": "string",
                    "name": "_eventName",
                    "type": "string"
                },
                {
                    "internalType": "string",
                    "name": "_eventDescription",
                    "type": "string"
                },
                {
                    "internalType": "uint256",
                    "name": "_ticketCount",
                    "type": "uint256"
                },
                {
                    "internalType": "uint256",
                    "name": "_ticketPrice",
                    "type": "uint256"
                },
                {
                    "internalType": "string",
                    "name": "_uri",
                    "type": "string"
                }
            ],
            "name": "mintEvent",
            "outputs": [
                {
                    "internalType": "uint256",
                    "name": "",
                    "type": "uint256"
                }
            ],
            "stateMutability": "nonpayable",
            "type": "function"
        },
        {
            "inputs": [
                {
                    "internalType": "address",
                    "name": "from",
                    "type": "address"
                },
                {
                    "internalType": "address",
                    "name": "to",
                    "type": "address"
                },
                {
                    "internalType": "uint256[]",
                    "name": "ids",
                    "type": "uint256[]"
                },
                {
                    "internalType": "uint256[]",
                    "name": "amounts",
                    "type": "uint256[]"
                },
                {
                    "internalType": "bytes",
                    "name": "data",
                    "type": "bytes"
                }
            ],
            "name": "safeBatchTransferFrom",
            "outputs": [],
            "stateMutability": "nonpayable",
            "type": "function"
        },
        {
            "inputs": [
                {
                    "internalType": "address",
                    "name": "from",
                    "type": "address"
                },
                {
                    "internalType": "address",
                    "name": "to",
                    "type": "address"
                },
                {
                    "internalType": "uint256",
                    "name": "id",
                    "type": "uint256"
                },
                {
                    "internalType": "uint256",
                    "name": "amount",
                    "type": "uint256"
                },
                {
                    "internalType": "bytes",
                    "name": "data",
                    "type": "bytes"
                }
            ],
            "name": "safeTransferFrom",
            "outputs": [],
            "stateMutability": "nonpayable",
            "type": "function"
        },
        {
            "inputs": [
                {
                    "internalType": "address",
                    "name": "operator",
                    "type": "address"
                },
                {
                    "internalType": "bool",
                    "name": "approved",
                    "type": "bool"
                }
            ],
            "name": "setApprovalForAll",
            "outputs": [],
            "stateMutability": "nonpayable",
            "type": "function"
        },
        {
            "inputs": [
                {
                    "internalType": "bytes4",
                    "name": "interfaceId",
                    "type": "bytes4"
                }
            ],
            "name": "supportsInterface",
            "outputs": [
                {
                    "internalType": "bool",
                    "name": "",
                    "type": "bool"
                }
            ],
            "stateMutability": "view",
            "type": "function"
        },
        {
            "inputs": [
                {
                    "internalType": "uint256",
                    "name": "_eventID",
                    "type": "uint256"
                },
                {
                    "internalType": "address",
                    "name": "_to",
                    "type": "address"
                },
                {
                    "internalType": "uint256",
                    "name": "_ticketCount",
                    "type": "uint256"
                }
            ],
            "name": "transferTicket",
            "outputs": [
                {
                    "internalType": "bool",
                    "name": "",
                    "type": "bool"
                }
            ],
            "stateMutability": "nonpayable",
            "type": "function"
        },
        {
            "inputs": [
                {
                    "internalType": "uint256",
                    "name": "",
                    "type": "uint256"
                }
            ],
            "name": "uri",
            "outputs": [
                {
                    "internalType": "string",
                    "name": "",
                    "type": "string"
                }
            ],
            "stateMutability": "view",
            "type": "function"
        }
    ],
    "bytecode": "0x60806040523480156200001157600080fd5b5060408051808201909152600e81526d7777772e676f6f676c652e636f6d60901b602082015262000042816200004e565b5060016003556200014a565b80516200006390600290602084019062000067565b5050565b82805462000075906200010d565b90600052602060002090601f016020900481019282620000995760008555620000e4565b82601f10620000b457805160ff1916838001178555620000e4565b82800160010185558215620000e4579182015b82811115620000e4578251825591602001919060010190620000c7565b50620000f2929150620000f6565b5090565b5b80821115620000f25760008155600101620000f7565b600181811c908216806200012257607f821691505b602082108114156200014457634e487b7160e01b600052602260045260246000fd5b50919050565b612359806200015a6000396000f3fe608060405234801561001057600080fd5b50600436106100de5760003560e01c80634e1273f41161008c578063a22cb46511610066578063a22cb465146101e2578063da6d790b146101f5578063e985e9c514610208578063f242432a1461024457600080fd5b80634e1273f414610189578063652d3d37146101a95780639d0c025b146101cf57600080fd5b80632eb2c2d6116100bd5780632eb2c2d61461014c578063404aa8f91461016157806344463e8f1461017657600080fd5b8062fdd58e146100e357806301ffc9a7146101095780630e89341c1461012c575b600080fd5b6100f66100f1366004611a22565b610257565b6040519081526020015b60405180910390f35b61011c610117366004611a65565b610300565b6040519015158152602001610100565b61013f61013a366004611a89565b61039d565b6040516101009190611aef565b61015f61015a366004611c4e565b610431565b005b6101696104f1565b6040516101009190611cf8565b6100f6610184366004611dc2565b61072e565b61019c610197366004611e44565b610a11565b6040516101009190611f4a565b6101bc6101b7366004611f5d565b610b4f565b6040516101009796959493929190611f78565b6101bc6101dd366004611a89565b610d22565b61015f6101f0366004611fd7565b610d57565b61011c610203366004612013565b610d66565b61011c610216366004612048565b6001600160a01b03918216600090815260016020908152604080832093909416825291909152205460ff1690565b61015f61025236600461207b565b610e45565b60006001600160a01b0383166102da5760405162461bcd60e51b815260206004820152602a60248201527f455243313135353a2061646472657373207a65726f206973206e6f742061207660448201527f616c6964206f776e65720000000000000000000000000000000000000000000060648201526084015b60405180910390fd5b506000908152602081815260408083206001600160a01b03949094168352929052205490565b60006001600160e01b031982167fd9b67a2600000000000000000000000000000000000000000000000000000000148061036357506001600160e01b031982167f0e89341c00000000000000000000000000000000000000000000000000000000145b8061039757507f01ffc9a7000000000000000000000000000000000000000000000000000000006001600160e01b03198316145b92915050565b6060600280546103ac906120e0565b80601f01602080910402602001604051908101604052809291908181526020018280546103d8906120e0565b80156104255780601f106103fa57610100808354040283529160200191610425565b820191906000526020600020905b81548152906001019060200180831161040857829003601f168201915b50505050509050919050565b6001600160a01b03851633148061046b57506001600160a01b038516600090815260016020908152604080832033845290915290205460ff165b6104dd5760405162461bcd60e51b815260206004820152602e60248201527f455243313135353a2063616c6c6572206973206e6f7420746f6b656e206f776e60448201527f6572206f7220617070726f76656400000000000000000000000000000000000060648201526084016102d1565b6104ea8585858585610efe565b5050505050565b6060600d805480602002602001604051908101604052809291908181526020016000905b8282101561072557838290600052602060002090600702016040518060e001604052908160008201548152602001600182018054610552906120e0565b80601f016020809104026020016040519081016040528092919081815260200182805461057e906120e0565b80156105cb5780601f106105a0576101008083540402835291602001916105cb565b820191906000526020600020905b8154815290600101906020018083116105ae57829003601f168201915b505050505081526020016002820180546105e4906120e0565b80601f0160208091040260200160405190810160405280929190818152602001828054610610906120e0565b801561065d5780601f106106325761010080835404028352916020019161065d565b820191906000526020600020905b81548152906001019060200180831161064057829003601f168201915b50505050508152602001600382018054610676906120e0565b80601f01602080910402602001604051908101604052809291908181526020018280546106a2906120e0565b80156106ef5780601f106106c4576101008083540402835291602001916106ef565b820191906000526020600020905b8154815290600101906020018083116106d257829003601f168201915b50505050508152602001600482015481526020016005820154815260200160068201548152505081526020019060010190610515565b50505050905090565b600061073e600480546001019055565b600061074960045490565b9050610759600480546001019055565b600061076460045490565b6040805160028082526060820183529293506000929091602083019080368337019050509050828160008151811061079e5761079e61211b565b60200260200101818152505081816001815181106107be576107be61211b565b6020908102919091010152604080516002808252606082019092526000918160200160208202803683370190505090506001816000815181106108035761080361211b565b60200260200101818152505087816001815181106108235761082361211b565b6020026020010181815250506040518060e001604052808581526020018b81526020018a815260200187815260200184815260200189815260200188815250600560008201518160000155602082015181600101908051906020019061088a9291906118f2565b50604082015180516108a69160028401916020909101906118f2565b50606082015180516108c29160038401916020909101906118f2565b506080820151600482015560a082015160058083019190915560c090920151600691820155600d8054600181018255600091909152825460079091027fd7b6990105719101dabeb77144f2a3385c8033acd3af97e9423a695e81ad1eb58101918255825491927fd7b6990105719101dabeb77144f2a3385c8033acd3af97e9423a695e81ad1eb690910191610956906120e0565b610961929190611976565b506002820181600201908054610976906120e0565b610981929190611976565b506003820181600301908054610996906120e0565b6109a1929190611976565b506004820154816004015560058201548160050155600682015481600601555050610a033383836040518060400160405280600481526020017f307830300000000000000000000000000000000000000000000000000000000081525061115c565b509198975050505050505050565b60608151835114610a8a5760405162461bcd60e51b815260206004820152602960248201527f455243313135353a206163636f756e747320616e6420696473206c656e67746860448201527f206d69736d61746368000000000000000000000000000000000000000000000060648201526084016102d1565b6000835167ffffffffffffffff811115610aa657610aa6611b02565b604051908082528060200260200182016040528015610acf578160200160208202803683370190505b50905060005b8451811015610b4757610b1a858281518110610af357610af361211b565b6020026020010151858381518110610b0d57610b0d61211b565b6020026020010151610257565b828281518110610b2c57610b2c61211b565b6020908102919091010152610b4081612147565b9050610ad5565b509392505050565b600c6020526000908152604090208054600182018054919291610b71906120e0565b80601f0160208091040260200160405190810160405280929190818152602001828054610b9d906120e0565b8015610bea5780601f10610bbf57610100808354040283529160200191610bea565b820191906000526020600020905b815481529060010190602001808311610bcd57829003601f168201915b505050505090806002018054610bff906120e0565b80601f0160208091040260200160405190810160405280929190818152602001828054610c2b906120e0565b8015610c785780601f10610c4d57610100808354040283529160200191610c78565b820191906000526020600020905b815481529060010190602001808311610c5b57829003601f168201915b505050505090806003018054610c8d906120e0565b80601f0160208091040260200160405190810160405280929190818152602001828054610cb9906120e0565b8015610d065780601f10610cdb57610100808354040283529160200191610d06565b820191906000526020600020905b815481529060010190602001808311610ce957829003601f168201915b5050505050908060040154908060050154908060060154905087565b600d8181548110610d3257600080fd5b60009182526020909120600790910201805460018201805491935090610b71906120e0565b610d6233838361133e565b5050565b60008060005b600d54811015610db857600d8181548110610d8957610d8961211b565b906000526020600020906007020160000154861415610da6578091505b80610db081612147565b915050610d6c565b506000600d8281548110610dce57610dce61211b565b906000526020600020906007020160040154905083600d8381548110610df657610df661211b565b90600052602060002090600702016005016000828254610e169190612162565b92505081905550610e393386838760405180602001604052806000815250610e45565b50600195945050505050565b6001600160a01b038516331480610e7f57506001600160a01b038516600090815260016020908152604080832033845290915290205460ff165b610ef15760405162461bcd60e51b815260206004820152602e60248201527f455243313135353a2063616c6c6572206973206e6f7420746f6b656e206f776e60448201527f6572206f7220617070726f76656400000000000000000000000000000000000060648201526084016102d1565b6104ea8585858585611433565b8151835114610f605760405162461bcd60e51b815260206004820152602860248201527f455243313135353a2069647320616e6420616d6f756e7473206c656e677468206044820152670dad2e6dac2e8c6d60c31b60648201526084016102d1565b6001600160a01b038416610fc45760405162461bcd60e51b815260206004820152602560248201527f455243313135353a207472616e7366657220746f20746865207a65726f206164604482015264647265737360d81b60648201526084016102d1565b3360005b84518110156110ee576000858281518110610fe557610fe561211b565b6020026020010151905060008583815181106110035761100361211b565b602090810291909101810151600084815280835260408082206001600160a01b038e1683529093529190912054909150818110156110965760405162461bcd60e51b815260206004820152602a60248201527f455243313135353a20696e73756666696369656e742062616c616e636520666f60448201526939103a3930b739b332b960b11b60648201526084016102d1565b6000838152602081815260408083206001600160a01b038e8116855292528083208585039055908b168252812080548492906110d3908490612179565b92505081905550505050806110e790612147565b9050610fc8565b50846001600160a01b0316866001600160a01b0316826001600160a01b03167f4a39dc06d4c0dbc64b70af90fd698a233a518aa5d07e595d983b8c0526c8f7fb878760405161113e929190612191565b60405180910390a46111548187878787876115de565b505050505050565b6001600160a01b0384166111d85760405162461bcd60e51b815260206004820152602160248201527f455243313135353a206d696e7420746f20746865207a65726f2061646472657360448201527f730000000000000000000000000000000000000000000000000000000000000060648201526084016102d1565b815183511461123a5760405162461bcd60e51b815260206004820152602860248201527f455243313135353a2069647320616e6420616d6f756e7473206c656e677468206044820152670dad2e6dac2e8c6d60c31b60648201526084016102d1565b3360005b84518110156112d6578381815181106112595761125961211b565b60200260200101516000808784815181106112765761127661211b565b602002602001015181526020019081526020016000206000886001600160a01b03166001600160a01b0316815260200190815260200160002060008282546112be9190612179565b909155508190506112ce81612147565b91505061123e565b50846001600160a01b031660006001600160a01b0316826001600160a01b03167f4a39dc06d4c0dbc64b70af90fd698a233a518aa5d07e595d983b8c0526c8f7fb8787604051611327929190612191565b60405180910390a46104ea816000878787876115de565b816001600160a01b0316836001600160a01b031614156113c65760405162461bcd60e51b815260206004820152602960248201527f455243313135353a2073657474696e6720617070726f76616c2073746174757360448201527f20666f722073656c66000000000000000000000000000000000000000000000060648201526084016102d1565b6001600160a01b03838116600081815260016020908152604080832094871680845294825291829020805460ff191686151590811790915591519182527f17307eab39ab6107e8899845ad3d59bd9653f200f220920489ca2b5937696c31910160405180910390a3505050565b6001600160a01b0384166114975760405162461bcd60e51b815260206004820152602560248201527f455243313135353a207472616e7366657220746f20746865207a65726f206164604482015264647265737360d81b60648201526084016102d1565b3360006114a38561179c565b905060006114b08561179c565b90506000868152602081815260408083206001600160a01b038c168452909152902054858110156115365760405162461bcd60e51b815260206004820152602a60248201527f455243313135353a20696e73756666696369656e742062616c616e636520666f60448201526939103a3930b739b332b960b11b60648201526084016102d1565b6000878152602081815260408083206001600160a01b038d8116855292528083208985039055908a16825281208054889290611573908490612179565b909155505060408051888152602081018890526001600160a01b03808b16928c821692918816917fc3d58168c5ae7397731d063d5bbf3d657854427343f4c083240f7aacaa2d0f62910160405180910390a46115d3848a8a8a8a8a6117e7565b505050505050505050565b6001600160a01b0384163b156111545760405163bc197c8160e01b81526001600160a01b0385169063bc197c819061162290899089908890889088906004016121bf565b602060405180830381600087803b15801561163c57600080fd5b505af192505050801561166c575060408051601f3d908101601f191682019092526116699181019061221d565b60015b6117225761167861223a565b806308c379a014156116b2575061168d612256565b8061169857506116b4565b8060405162461bcd60e51b81526004016102d19190611aef565b505b60405162461bcd60e51b815260206004820152603460248201527f455243313135353a207472616e7366657220746f206e6f6e2d4552433131353560448201527f526563656976657220696d706c656d656e74657200000000000000000000000060648201526084016102d1565b6001600160e01b0319811663bc197c8160e01b146117935760405162461bcd60e51b815260206004820152602860248201527f455243313135353a204552433131353552656365697665722072656a656374656044820152676420746f6b656e7360c01b60648201526084016102d1565b50505050505050565b604080516001808252818301909252606091600091906020808301908036833701905050905082816000815181106117d6576117d661211b565b602090810291909101015292915050565b6001600160a01b0384163b156111545760405163f23a6e6160e01b81526001600160a01b0385169063f23a6e619061182b90899089908890889088906004016122e0565b602060405180830381600087803b15801561184557600080fd5b505af1925050508015611875575060408051601f3d908101601f191682019092526118729181019061221d565b60015b6118815761167861223a565b6001600160e01b0319811663f23a6e6160e01b146117935760405162461bcd60e51b815260206004820152602860248201527f455243313135353a204552433131353552656365697665722072656a656374656044820152676420746f6b656e7360c01b60648201526084016102d1565b8280546118fe906120e0565b90600052602060002090601f0160209004810192826119205760008555611966565b82601f1061193957805160ff1916838001178555611966565b82800160010185558215611966579182015b8281111561196657825182559160200191906001019061194b565b506119729291506119f1565b5090565b828054611982906120e0565b90600052602060002090601f0160209004810192826119a45760008555611966565b82601f106119b55780548555611966565b8280016001018555821561196657600052602060002091601f016020900482015b828111156119665782548255916001019190600101906119d6565b5b8082111561197257600081556001016119f2565b80356001600160a01b0381168114611a1d57600080fd5b919050565b60008060408385031215611a3557600080fd5b611a3e83611a06565b946020939093013593505050565b6001600160e01b031981168114611a6257600080fd5b50565b600060208284031215611a7757600080fd5b8135611a8281611a4c565b9392505050565b600060208284031215611a9b57600080fd5b5035919050565b6000815180845260005b81811015611ac857602081850181015186830182015201611aac565b81811115611ada576000602083870101525b50601f01601f19169290920160200192915050565b602081526000611a826020830184611aa2565b634e487b7160e01b600052604160045260246000fd5b601f8201601f1916810167ffffffffffffffff81118282101715611b3e57611b3e611b02565b6040525050565b600067ffffffffffffffff821115611b5f57611b5f611b02565b5060051b60200190565b600082601f830112611b7a57600080fd5b81356020611b8782611b45565b604051611b948282611b18565b83815260059390931b8501820192828101915086841115611bb457600080fd5b8286015b84811015611bcf5780358352918301918301611bb8565b509695505050505050565b600082601f830112611beb57600080fd5b813567ffffffffffffffff811115611c0557611c05611b02565b604051611c1c601f8301601f191660200182611b18565b818152846020838601011115611c3157600080fd5b816020850160208301376000918101602001919091529392505050565b600080600080600060a08688031215611c6657600080fd5b611c6f86611a06565b9450611c7d60208701611a06565b9350604086013567ffffffffffffffff80821115611c9a57600080fd5b611ca689838a01611b69565b94506060880135915080821115611cbc57600080fd5b611cc889838a01611b69565b93506080880135915080821115611cde57600080fd5b50611ceb88828901611bda565b9150509295509295909350565b60006020808301818452808551808352604092508286019150828160051b87010184880160005b83811015611db457603f19898403018552815160e08151855288820151818a870152611d4d82870182611aa2565b9150508782015185820389870152611d658282611aa2565b91505060608083015186830382880152611d7f8382611aa2565b6080858101519089015260a0808601519089015260c09485015194909701939093525050509386019390860190600101611d1f565b509098975050505050505050565b600080600080600060a08688031215611dda57600080fd5b853567ffffffffffffffff80821115611df257600080fd5b611dfe89838a01611bda565b96506020880135915080821115611e1457600080fd5b611e2089838a01611bda565b955060408801359450606088013593506080880135915080821115611cde57600080fd5b60008060408385031215611e5757600080fd5b823567ffffffffffffffff80821115611e6f57600080fd5b818501915085601f830112611e8357600080fd5b81356020611e9082611b45565b604051611e9d8282611b18565b83815260059390931b8501820192828101915089841115611ebd57600080fd5b948201945b83861015611ee257611ed386611a06565b82529482019490820190611ec2565b96505086013592505080821115611ef857600080fd5b50611f0585828601611b69565b9150509250929050565b600081518084526020808501945080840160005b83811015611f3f57815187529582019590820190600101611f23565b509495945050505050565b602081526000611a826020830184611f0f565b600060208284031215611f6f57600080fd5b611a8282611a06565b87815260e060208201526000611f9160e0830189611aa2565b8281036040840152611fa38189611aa2565b90508281036060840152611fb78188611aa2565b6080840196909652505060a081019290925260c090910152949350505050565b60008060408385031215611fea57600080fd5b611ff383611a06565b91506020830135801515811461200857600080fd5b809150509250929050565b60008060006060848603121561202857600080fd5b8335925061203860208501611a06565b9150604084013590509250925092565b6000806040838503121561205b57600080fd5b61206483611a06565b915061207260208401611a06565b90509250929050565b600080600080600060a0868803121561209357600080fd5b61209c86611a06565b94506120aa60208701611a06565b93506040860135925060608601359150608086013567ffffffffffffffff8111156120d457600080fd5b611ceb88828901611bda565b600181811c908216806120f457607f821691505b6020821081141561211557634e487b7160e01b600052602260045260246000fd5b50919050565b634e487b7160e01b600052603260045260246000fd5b634e487b7160e01b600052601160045260246000fd5b600060001982141561215b5761215b612131565b5060010190565b60008282101561217457612174612131565b500390565b6000821982111561218c5761218c612131565b500190565b6040815260006121a46040830185611f0f565b82810360208401526121b68185611f0f565b95945050505050565b60006001600160a01b03808816835280871660208401525060a060408301526121eb60a0830186611f0f565b82810360608401526121fd8186611f0f565b905082810360808401526122118185611aa2565b98975050505050505050565b60006020828403121561222f57600080fd5b8151611a8281611a4c565b600060033d11156122535760046000803e5060005160e01c5b90565b600060443d10156122645790565b6040516003193d81016004833e81513d67ffffffffffffffff816024840111818411171561229457505050505090565b82850191508151818111156122ac5750505050505090565b843d87010160208285010111156122c65750505050505090565b6122d560208286010187611b18565b509095945050505050565b60006001600160a01b03808816835280871660208401525084604083015283606083015260a0608083015261231860a0830184611aa2565b97965050505050505056fea26469706673582212207f3cf9b35f695dce67287d2fe479533f6c8c51314096e3baa0269b3151e7713964736f6c63430008090033",
    "linkReferences": {},
    "deployedLinkReferences": {}
}