{
    "_format": "hh-sol-artifact-1",
    "contractName": "eventNFT",
    "sourceName": "contracts/mainEvent.sol",
    "abi": [
        {
            "inputs": [],
            "stateMutability": "nonpayable",
            "type": "constructor"
        },
        {
            "anonymous": false,
            "inputs": [
                {
                    "indexed": true,
                    "internalType": "address",
                    "name": "account",
                    "type": "address"
                },
                {
                    "indexed": true,
                    "internalType": "address",
                    "name": "operator",
                    "type": "address"
                },
                {
                    "indexed": false,
                    "internalType": "bool",
                    "name": "approved",
                    "type": "bool"
                }
            ],
            "name": "ApprovalForAll",
            "type": "event"
        },
        {
            "anonymous": false,
            "inputs": [
                {
                    "indexed": true,
                    "internalType": "address",
                    "name": "operator",
                    "type": "address"
                },
                {
                    "indexed": true,
                    "internalType": "address",
                    "name": "from",
                    "type": "address"
                },
                {
                    "indexed": true,
                    "internalType": "address",
                    "name": "to",
                    "type": "address"
                },
                {
                    "indexed": false,
                    "internalType": "uint256[]",
                    "name": "ids",
                    "type": "uint256[]"
                },
                {
                    "indexed": false,
                    "internalType": "uint256[]",
                    "name": "values",
                    "type": "uint256[]"
                }
            ],
            "name": "TransferBatch",
            "type": "event"
        },
        {
            "anonymous": false,
            "inputs": [
                {
                    "indexed": true,
                    "internalType": "address",
                    "name": "operator",
                    "type": "address"
                },
                {
                    "indexed": true,
                    "internalType": "address",
                    "name": "from",
                    "type": "address"
                },
                {
                    "indexed": true,
                    "internalType": "address",
                    "name": "to",
                    "type": "address"
                },
                {
                    "indexed": false,
                    "internalType": "uint256",
                    "name": "id",
                    "type": "uint256"
                },
                {
                    "indexed": false,
                    "internalType": "uint256",
                    "name": "value",
                    "type": "uint256"
                }
            ],
            "name": "TransferSingle",
            "type": "event"
        },
        {
            "anonymous": false,
            "inputs": [
                {
                    "indexed": false,
                    "internalType": "string",
                    "name": "value",
                    "type": "string"
                },
                {
                    "indexed": true,
                    "internalType": "uint256",
                    "name": "id",
                    "type": "uint256"
                }
            ],
            "name": "URI",
            "type": "event"
        },
        {
            "inputs": [
                {
                    "internalType": "address",
                    "name": "account",
                    "type": "address"
                },
                {
                    "internalType": "uint256",
                    "name": "id",
                    "type": "uint256"
                }
            ],
            "name": "balanceOf",
            "outputs": [
                {
                    "internalType": "uint256",
                    "name": "",
                    "type": "uint256"
                }
            ],
            "stateMutability": "view",
            "type": "function"
        },
        {
            "inputs": [
                {
                    "internalType": "address[]",
                    "name": "accounts",
                    "type": "address[]"
                },
                {
                    "internalType": "uint256[]",
                    "name": "ids",
                    "type": "uint256[]"
                }
            ],
            "name": "balanceOfBatch",
            "outputs": [
                {
                    "internalType": "uint256[]",
                    "name": "",
                    "type": "uint256[]"
                }
            ],
            "stateMutability": "view",
            "type": "function"
        },
        {
            "inputs": [
                {
                    "internalType": "uint256",
                    "name": "",
                    "type": "uint256"
                }
            ],
            "name": "eventInfo",
            "outputs": [
                {
                    "internalType": "uint256",
                    "name": "eventID",
                    "type": "uint256"
                },
                {
                    "internalType": "address",
                    "name": "creator",
                    "type": "address"
                },
                {
                    "internalType": "string",
                    "name": "name",
                    "type": "string"
                },
                {
                    "internalType": "string",
                    "name": "description",
                    "type": "string"
                },
                {
                    "internalType": "string",
                    "name": "imageURI",
                    "type": "string"
                },
                {
                    "internalType": "uint256",
                    "name": "ticketID",
                    "type": "uint256"
                },
                {
                    "internalType": "uint256",
                    "name": "ticketCount",
                    "type": "uint256"
                },
                {
                    "internalType": "uint256",
                    "name": "ticketPrice",
                    "type": "uint256"
                }
            ],
            "stateMutability": "view",
            "type": "function"
        },
        {
            "inputs": [
                {
                    "internalType": "address",
                    "name": "",
                    "type": "address"
                }
            ],
            "name": "eventOwner",
            "outputs": [
                {
                    "internalType": "uint256",
                    "name": "eventID",
                    "type": "uint256"
                },
                {
                    "internalType": "address",
                    "name": "creator",
                    "type": "address"
                },
                {
                    "internalType": "string",
                    "name": "name",
                    "type": "string"
                },
                {
                    "internalType": "string",
                    "name": "description",
                    "type": "string"
                },
                {
                    "internalType": "string",
                    "name": "imageURI",
                    "type": "string"
                },
                {
                    "internalType": "uint256",
                    "name": "ticketID",
                    "type": "uint256"
                },
                {
                    "internalType": "uint256",
                    "name": "ticketCount",
                    "type": "uint256"
                },
                {
                    "internalType": "uint256",
                    "name": "ticketPrice",
                    "type": "uint256"
                }
            ],
            "stateMutability": "view",
            "type": "function"
        },
        {
            "inputs": [],
            "name": "getEvents",
            "outputs": [
                {
                    "components": [
                        {
                            "internalType": "uint256",
                            "name": "eventID",
                            "type": "uint256"
                        },
                        {
                            "internalType": "address",
                            "name": "creator",
                            "type": "address"
                        },
                        {
                            "internalType": "string",
                            "name": "name",
                            "type": "string"
                        },
                        {
                            "internalType": "string",
                            "name": "description",
                            "type": "string"
                        },
                        {
                            "internalType": "string",
                            "name": "imageURI",
                            "type": "string"
                        },
                        {
                            "internalType": "uint256",
                            "name": "ticketID",
                            "type": "uint256"
                        },
                        {
                            "internalType": "uint256",
                            "name": "ticketCount",
                            "type": "uint256"
                        },
                        {
                            "internalType": "uint256",
                            "name": "ticketPrice",
                            "type": "uint256"
                        }
                    ],
                    "internalType": "struct eventNFT.eventDetails[]",
                    "name": "",
                    "type": "tuple[]"
                }
            ],
            "stateMutability": "view",
            "type": "function"
        },
        {
            "inputs": [
                {
                    "internalType": "address",
                    "name": "account",
                    "type": "address"
                },
                {
                    "internalType": "address",
                    "name": "operator",
                    "type": "address"
                }
            ],
            "name": "isApprovedForAll",
            "outputs": [
                {
                    "internalType": "bool",
                    "name": "",
                    "type": "bool"
                }
            ],
            "stateMutability": "view",
            "type": "function"
        },
        {
            "inputs": [
                {
                    "internalType": "string",
                    "name": "_eventName",
                    "type": "string"
                },
                {
                    "internalType": "string",
                    "name": "_eventDescription",
                    "type": "string"
                },
                {
                    "internalType": "uint256",
                    "name": "_ticketCount",
                    "type": "uint256"
                },
                {
                    "internalType": "uint256",
                    "name": "_ticketPrice",
                    "type": "uint256"
                },
                {
                    "internalType": "string",
                    "name": "_uri",
                    "type": "string"
                }
            ],
            "name": "mintEvent",
            "outputs": [
                {
                    "internalType": "uint256",
                    "name": "",
                    "type": "uint256"
                }
            ],
            "stateMutability": "nonpayable",
            "type": "function"
        },
        {
            "inputs": [
                {
                    "internalType": "address",
                    "name": "from",
                    "type": "address"
                },
                {
                    "internalType": "address",
                    "name": "to",
                    "type": "address"
                },
                {
                    "internalType": "uint256[]",
                    "name": "ids",
                    "type": "uint256[]"
                },
                {
                    "internalType": "uint256[]",
                    "name": "amounts",
                    "type": "uint256[]"
                },
                {
                    "internalType": "bytes",
                    "name": "data",
                    "type": "bytes"
                }
            ],
            "name": "safeBatchTransferFrom",
            "outputs": [],
            "stateMutability": "nonpayable",
            "type": "function"
        },
        {
            "inputs": [
                {
                    "internalType": "address",
                    "name": "from",
                    "type": "address"
                },
                {
                    "internalType": "address",
                    "name": "to",
                    "type": "address"
                },
                {
                    "internalType": "uint256",
                    "name": "id",
                    "type": "uint256"
                },
                {
                    "internalType": "uint256",
                    "name": "amount",
                    "type": "uint256"
                },
                {
                    "internalType": "bytes",
                    "name": "data",
                    "type": "bytes"
                }
            ],
            "name": "safeTransferFrom",
            "outputs": [],
            "stateMutability": "nonpayable",
            "type": "function"
        },
        {
            "inputs": [
                {
                    "internalType": "address",
                    "name": "operator",
                    "type": "address"
                },
                {
                    "internalType": "bool",
                    "name": "approved",
                    "type": "bool"
                }
            ],
            "name": "setApprovalForAll",
            "outputs": [],
            "stateMutability": "nonpayable",
            "type": "function"
        },
        {
            "inputs": [
                {
                    "internalType": "bytes4",
                    "name": "interfaceId",
                    "type": "bytes4"
                }
            ],
            "name": "supportsInterface",
            "outputs": [
                {
                    "internalType": "bool",
                    "name": "",
                    "type": "bool"
                }
            ],
            "stateMutability": "view",
            "type": "function"
        },
        {
            "inputs": [
                {
                    "internalType": "uint256",
                    "name": "_eventID",
                    "type": "uint256"
                },
                {
                    "internalType": "address",
                    "name": "_from",
                    "type": "address"
                },
                {
                    "internalType": "address",
                    "name": "_to",
                    "type": "address"
                },
                {
                    "internalType": "uint256",
                    "name": "_ticketCount",
                    "type": "uint256"
                }
            ],
            "name": "transferTicket",
            "outputs": [
                {
                    "internalType": "bool",
                    "name": "",
                    "type": "bool"
                }
            ],
            "stateMutability": "nonpayable",
            "type": "function"
        },
        {
            "inputs": [
                {
                    "internalType": "uint256",
                    "name": "",
                    "type": "uint256"
                }
            ],
            "name": "uri",
            "outputs": [
                {
                    "internalType": "string",
                    "name": "",
                    "type": "string"
                }
            ],
            "stateMutability": "view",
            "type": "function"
        }
    ],
    "bytecode": "0x60806040523480156200001157600080fd5b5060408051808201909152600e81526d7777772e676f6f676c652e636f6d60901b602082015262000042816200004e565b5060016003556200014a565b80516200006390600290602084019062000067565b5050565b82805462000075906200010d565b90600052602060002090601f016020900481019282620000995760008555620000e4565b82601f10620000b457805160ff1916838001178555620000e4565b82800160010185558215620000e4579182015b82811115620000e4578251825591602001919060010190620000c7565b50620000f2929150620000f6565b5090565b5b80821115620000f25760008155600101620000f7565b600181811c908216806200012257607f821691505b602082108114156200014457634e487b7160e01b600052602260045260246000fd5b50919050565b612440806200015a6000396000f3fe608060405234801561001057600080fd5b50600436106100de5760003560e01c806344463e8f1161008c5780639d0c025b116100665780639d0c025b146101e3578063a22cb465146101f6578063e985e9c514610209578063f242432a1461024557600080fd5b806344463e8f146101895780634e1273f41461019c578063652d3d37146101bc57600080fd5b80631544927a116100bd5780631544927a1461014c5780632eb2c2d61461015f578063404aa8f91461017457600080fd5b8062fdd58e146100e357806301ffc9a7146101095780630e89341c1461012c575b600080fd5b6100f66100f1366004611ad0565b610258565b6040519081526020015b60405180910390f35b61011c610117366004611b13565b610301565b6040519015158152602001610100565b61013f61013a366004611b37565b61039e565b6040516101009190611b9d565b61011c61015a366004611bb0565b610432565b61017261016d366004611d40565b610512565b005b61017c6105d2565b6040516101009190611dea565b6100f6610197366004611ecb565b610826565b6101af6101aa366004611f4d565b610b7d565b6040516101009190612053565b6101cf6101ca366004612066565b610cbb565b604051610100989796959493929190612081565b6101cf6101f1366004611b37565b610e9e565b6101726102043660046120f3565b610ee4565b61011c61021736600461212f565b6001600160a01b03918216600090815260016020908152604080832093909416825291909152205460ff1690565b610172610253366004612162565b610ef3565b60006001600160a01b0383166102db5760405162461bcd60e51b815260206004820152602a60248201527f455243313135353a2061646472657373207a65726f206973206e6f742061207660448201527f616c6964206f776e65720000000000000000000000000000000000000000000060648201526084015b60405180910390fd5b506000908152602081815260408083206001600160a01b03949094168352929052205490565b60006001600160e01b031982167fd9b67a2600000000000000000000000000000000000000000000000000000000148061036457506001600160e01b031982167f0e89341c00000000000000000000000000000000000000000000000000000000145b8061039857507f01ffc9a7000000000000000000000000000000000000000000000000000000006001600160e01b03198316145b92915050565b6060600280546103ad906121c7565b80601f01602080910402602001604051908101604052809291908181526020018280546103d9906121c7565b80156104265780601f106103fb57610100808354040283529160200191610426565b820191906000526020600020905b81548152906001019060200180831161040957829003601f168201915b50505050509050919050565b60008060005b600e5481101561048457600e818154811061045557610455612202565b906000526020600020906008020160000154871415610472578091505b8061047c8161222e565b915050610438565b506000600e828154811061049a5761049a612202565b906000526020600020906008020160050154905083600e83815481106104c2576104c2612202565b906000526020600020906008020160060160008282546104e29190612249565b925050819055506105058686838760405180602001604052806000815250610ef3565b5060019695505050505050565b6001600160a01b03851633148061054c57506001600160a01b038516600090815260016020908152604080832033845290915290205460ff165b6105be5760405162461bcd60e51b815260206004820152602e60248201527f455243313135353a2063616c6c6572206973206e6f7420746f6b656e206f776e60448201527f6572206f7220617070726f76656400000000000000000000000000000000000060648201526084016102d2565b6105cb8585858585610fac565b5050505050565b6060600e805480602002602001604051908101604052809291908181526020016000905b8282101561081d5760008481526020908190206040805161010081018252600886029092018054835260018101546001600160a01b0316938301939093526002830180549293929184019161064a906121c7565b80601f0160208091040260200160405190810160405280929190818152602001828054610676906121c7565b80156106c35780601f10610698576101008083540402835291602001916106c3565b820191906000526020600020905b8154815290600101906020018083116106a657829003601f168201915b505050505081526020016003820180546106dc906121c7565b80601f0160208091040260200160405190810160405280929190818152602001828054610708906121c7565b80156107555780601f1061072a57610100808354040283529160200191610755565b820191906000526020600020905b81548152906001019060200180831161073857829003601f168201915b5050505050815260200160048201805461076e906121c7565b80601f016020809104026020016040519081016040528092919081815260200182805461079a906121c7565b80156107e75780601f106107bc576101008083540402835291602001916107e7565b820191906000526020600020905b8154815290600101906020018083116107ca57829003601f168201915b505050505081526020016005820154815260200160068201548152602001600782015481525050815260200190600101906105f6565b50505050905090565b6000610836600480546001019055565b600061084160045490565b9050610851600480546001019055565b600061085c60045490565b6040805160028082526060820183529293506000929091602083019080368337019050509050828160008151811061089657610896612202565b60200260200101818152505081816001815181106108b6576108b6612202565b6020908102919091010152604080516002808252606082019092526000918160200160208202803683370190505090506001816000815181106108fb576108fb612202565b602002602001018181525050878160018151811061091b5761091b612202565b6020908102919091018101919091526040805161010081018252868152338184018190529181018d9052606081018c90526080810189905260a0810186905260c081018b905260e081018a905260058781556006805473ffffffffffffffffffffffffffffffffffffffff19169093179092558c5190926109a1916007918f01906119a0565b50606082015180516109bd9160038401916020909101906119a0565b50608082015180516109d99160048401916020909101906119a0565b5060a082015160058083019190915560c083015160068084019190915560e090930151600792830155600e8054600181018255600091909152815460089091027fbb7b4a454dc3493923482f07822329ed19e8244eff582cc204f8554c3620c3fd810191825593547fbb7b4a454dc3493923482f07822329ed19e8244eff582cc204f8554c3620c3fe8501805473ffffffffffffffffffffffffffffffffffffffff19166001600160a01b039092169190911790558254919390927fbb7b4a454dc3493923482f07822329ed19e8244eff582cc204f8554c3620c3ff90910191610ac2906121c7565b610acd929190611a24565b506003820181600301908054610ae2906121c7565b610aed929190611a24565b506004820181600401908054610b02906121c7565b610b0d929190611a24565b506005820154816005015560068201548160060155600782015481600701555050610b6f3383836040518060400160405280600481526020017f307830300000000000000000000000000000000000000000000000000000000081525061120a565b509198975050505050505050565b60608151835114610bf65760405162461bcd60e51b815260206004820152602960248201527f455243313135353a206163636f756e747320616e6420696473206c656e67746860448201527f206d69736d61746368000000000000000000000000000000000000000000000060648201526084016102d2565b6000835167ffffffffffffffff811115610c1257610c12611bf4565b604051908082528060200260200182016040528015610c3b578160200160208202803683370190505b50905060005b8451811015610cb357610c86858281518110610c5f57610c5f612202565b6020026020010151858381518110610c7957610c79612202565b6020026020010151610258565b828281518110610c9857610c98612202565b6020908102919091010152610cac8161222e565b9050610c41565b509392505050565b600d6020526000908152604090208054600182015460028301805492936001600160a01b0390921692610ced906121c7565b80601f0160208091040260200160405190810160405280929190818152602001828054610d19906121c7565b8015610d665780601f10610d3b57610100808354040283529160200191610d66565b820191906000526020600020905b815481529060010190602001808311610d4957829003601f168201915b505050505090806003018054610d7b906121c7565b80601f0160208091040260200160405190810160405280929190818152602001828054610da7906121c7565b8015610df45780601f10610dc957610100808354040283529160200191610df4565b820191906000526020600020905b815481529060010190602001808311610dd757829003601f168201915b505050505090806004018054610e09906121c7565b80601f0160208091040260200160405190810160405280929190818152602001828054610e35906121c7565b8015610e825780601f10610e5757610100808354040283529160200191610e82565b820191906000526020600020905b815481529060010190602001808311610e6557829003601f168201915b5050505050908060050154908060060154908060070154905088565b600e8181548110610eae57600080fd5b60009182526020909120600890910201805460018201546002830180549294506001600160a01b039091169291610ced906121c7565b610eef3383836113ec565b5050565b6001600160a01b038516331480610f2d57506001600160a01b038516600090815260016020908152604080832033845290915290205460ff165b610f9f5760405162461bcd60e51b815260206004820152602e60248201527f455243313135353a2063616c6c6572206973206e6f7420746f6b656e206f776e60448201527f6572206f7220617070726f76656400000000000000000000000000000000000060648201526084016102d2565b6105cb85858585856114e1565b815183511461100e5760405162461bcd60e51b815260206004820152602860248201527f455243313135353a2069647320616e6420616d6f756e7473206c656e677468206044820152670dad2e6dac2e8c6d60c31b60648201526084016102d2565b6001600160a01b0384166110725760405162461bcd60e51b815260206004820152602560248201527f455243313135353a207472616e7366657220746f20746865207a65726f206164604482015264647265737360d81b60648201526084016102d2565b3360005b845181101561119c57600085828151811061109357611093612202565b6020026020010151905060008583815181106110b1576110b1612202565b602090810291909101810151600084815280835260408082206001600160a01b038e1683529093529190912054909150818110156111445760405162461bcd60e51b815260206004820152602a60248201527f455243313135353a20696e73756666696369656e742062616c616e636520666f60448201526939103a3930b739b332b960b11b60648201526084016102d2565b6000838152602081815260408083206001600160a01b038e8116855292528083208585039055908b16825281208054849290611181908490612260565b92505081905550505050806111959061222e565b9050611076565b50846001600160a01b0316866001600160a01b0316826001600160a01b03167f4a39dc06d4c0dbc64b70af90fd698a233a518aa5d07e595d983b8c0526c8f7fb87876040516111ec929190612278565b60405180910390a461120281878787878761168c565b505050505050565b6001600160a01b0384166112865760405162461bcd60e51b815260206004820152602160248201527f455243313135353a206d696e7420746f20746865207a65726f2061646472657360448201527f730000000000000000000000000000000000000000000000000000000000000060648201526084016102d2565b81518351146112e85760405162461bcd60e51b815260206004820152602860248201527f455243313135353a2069647320616e6420616d6f756e7473206c656e677468206044820152670dad2e6dac2e8c6d60c31b60648201526084016102d2565b3360005b84518110156113845783818151811061130757611307612202565b602002602001015160008087848151811061132457611324612202565b602002602001015181526020019081526020016000206000886001600160a01b03166001600160a01b03168152602001908152602001600020600082825461136c9190612260565b9091555081905061137c8161222e565b9150506112ec565b50846001600160a01b031660006001600160a01b0316826001600160a01b03167f4a39dc06d4c0dbc64b70af90fd698a233a518aa5d07e595d983b8c0526c8f7fb87876040516113d5929190612278565b60405180910390a46105cb8160008787878761168c565b816001600160a01b0316836001600160a01b031614156114745760405162461bcd60e51b815260206004820152602960248201527f455243313135353a2073657474696e6720617070726f76616c2073746174757360448201527f20666f722073656c66000000000000000000000000000000000000000000000060648201526084016102d2565b6001600160a01b03838116600081815260016020908152604080832094871680845294825291829020805460ff191686151590811790915591519182527f17307eab39ab6107e8899845ad3d59bd9653f200f220920489ca2b5937696c31910160405180910390a3505050565b6001600160a01b0384166115455760405162461bcd60e51b815260206004820152602560248201527f455243313135353a207472616e7366657220746f20746865207a65726f206164604482015264647265737360d81b60648201526084016102d2565b3360006115518561184a565b9050600061155e8561184a565b90506000868152602081815260408083206001600160a01b038c168452909152902054858110156115e45760405162461bcd60e51b815260206004820152602a60248201527f455243313135353a20696e73756666696369656e742062616c616e636520666f60448201526939103a3930b739b332b960b11b60648201526084016102d2565b6000878152602081815260408083206001600160a01b038d8116855292528083208985039055908a16825281208054889290611621908490612260565b909155505060408051888152602081018890526001600160a01b03808b16928c821692918816917fc3d58168c5ae7397731d063d5bbf3d657854427343f4c083240f7aacaa2d0f62910160405180910390a4611681848a8a8a8a8a611895565b505050505050505050565b6001600160a01b0384163b156112025760405163bc197c8160e01b81526001600160a01b0385169063bc197c81906116d090899089908890889088906004016122a6565b602060405180830381600087803b1580156116ea57600080fd5b505af192505050801561171a575060408051601f3d908101601f1916820190925261171791810190612304565b60015b6117d057611726612321565b806308c379a01415611760575061173b61233d565b806117465750611762565b8060405162461bcd60e51b81526004016102d29190611b9d565b505b60405162461bcd60e51b815260206004820152603460248201527f455243313135353a207472616e7366657220746f206e6f6e2d4552433131353560448201527f526563656976657220696d706c656d656e74657200000000000000000000000060648201526084016102d2565b6001600160e01b0319811663bc197c8160e01b146118415760405162461bcd60e51b815260206004820152602860248201527f455243313135353a204552433131353552656365697665722072656a656374656044820152676420746f6b656e7360c01b60648201526084016102d2565b50505050505050565b6040805160018082528183019092526060916000919060208083019080368337019050509050828160008151811061188457611884612202565b602090810291909101015292915050565b6001600160a01b0384163b156112025760405163f23a6e6160e01b81526001600160a01b0385169063f23a6e61906118d990899089908890889088906004016123c7565b602060405180830381600087803b1580156118f357600080fd5b505af1925050508015611923575060408051601f3d908101601f1916820190925261192091810190612304565b60015b61192f57611726612321565b6001600160e01b0319811663f23a6e6160e01b146118415760405162461bcd60e51b815260206004820152602860248201527f455243313135353a204552433131353552656365697665722072656a656374656044820152676420746f6b656e7360c01b60648201526084016102d2565b8280546119ac906121c7565b90600052602060002090601f0160209004810192826119ce5760008555611a14565b82601f106119e757805160ff1916838001178555611a14565b82800160010185558215611a14579182015b82811115611a145782518255916020019190600101906119f9565b50611a20929150611a9f565b5090565b828054611a30906121c7565b90600052602060002090601f016020900481019282611a525760008555611a14565b82601f10611a635780548555611a14565b82800160010185558215611a1457600052602060002091601f016020900482015b82811115611a14578254825591600101919060010190611a84565b5b80821115611a205760008155600101611aa0565b80356001600160a01b0381168114611acb57600080fd5b919050565b60008060408385031215611ae357600080fd5b611aec83611ab4565b946020939093013593505050565b6001600160e01b031981168114611b1057600080fd5b50565b600060208284031215611b2557600080fd5b8135611b3081611afa565b9392505050565b600060208284031215611b4957600080fd5b5035919050565b6000815180845260005b81811015611b7657602081850181015186830182015201611b5a565b81811115611b88576000602083870101525b50601f01601f19169290920160200192915050565b602081526000611b306020830184611b50565b60008060008060808587031215611bc657600080fd5b84359350611bd660208601611ab4565b9250611be460408601611ab4565b9396929550929360600135925050565b634e487b7160e01b600052604160045260246000fd5b601f8201601f1916810167ffffffffffffffff81118282101715611c3057611c30611bf4565b6040525050565b600067ffffffffffffffff821115611c5157611c51611bf4565b5060051b60200190565b600082601f830112611c6c57600080fd5b81356020611c7982611c37565b604051611c868282611c0a565b83815260059390931b8501820192828101915086841115611ca657600080fd5b8286015b84811015611cc15780358352918301918301611caa565b509695505050505050565b600082601f830112611cdd57600080fd5b813567ffffffffffffffff811115611cf757611cf7611bf4565b604051611d0e601f8301601f191660200182611c0a565b818152846020838601011115611d2357600080fd5b816020850160208301376000918101602001919091529392505050565b600080600080600060a08688031215611d5857600080fd5b611d6186611ab4565b9450611d6f60208701611ab4565b9350604086013567ffffffffffffffff80821115611d8c57600080fd5b611d9889838a01611c5b565b94506060880135915080821115611dae57600080fd5b611dba89838a01611c5b565b93506080880135915080821115611dd057600080fd5b50611ddd88828901611ccc565b9150509295509295909350565b60006020808301818452808551808352604092508286019150828160051b87010184880160005b83811015611ebd57603f19898403018552815180518452878101516001600160a01b0316888501528681015161010088860181905290611e5382870182611b50565b91505060608083015186830382880152611e6d8382611b50565b9250505060808083015186830382880152611e888382611b50565b60a0858101519089015260c0808601519089015260e09485015194909701939093525050509386019390860190600101611e11565b509098975050505050505050565b600080600080600060a08688031215611ee357600080fd5b853567ffffffffffffffff80821115611efb57600080fd5b611f0789838a01611ccc565b96506020880135915080821115611f1d57600080fd5b611f2989838a01611ccc565b955060408801359450606088013593506080880135915080821115611dd057600080fd5b60008060408385031215611f6057600080fd5b823567ffffffffffffffff80821115611f7857600080fd5b818501915085601f830112611f8c57600080fd5b81356020611f9982611c37565b604051611fa68282611c0a565b83815260059390931b8501820192828101915089841115611fc657600080fd5b948201945b83861015611feb57611fdc86611ab4565b82529482019490820190611fcb565b9650508601359250508082111561200157600080fd5b5061200e85828601611c5b565b9150509250929050565b600081518084526020808501945080840160005b838110156120485781518752958201959082019060010161202c565b509495945050505050565b602081526000611b306020830184612018565b60006020828403121561207857600080fd5b611b3082611ab4565b60006101008a83526001600160a01b038a1660208401528060408401526120aa8184018a611b50565b905082810360608401526120be8189611b50565b905082810360808401526120d28188611b50565b60a0840196909652505060c081019290925260e09091015295945050505050565b6000806040838503121561210657600080fd5b61210f83611ab4565b91506020830135801515811461212457600080fd5b809150509250929050565b6000806040838503121561214257600080fd5b61214b83611ab4565b915061215960208401611ab4565b90509250929050565b600080600080600060a0868803121561217a57600080fd5b61218386611ab4565b945061219160208701611ab4565b93506040860135925060608601359150608086013567ffffffffffffffff8111156121bb57600080fd5b611ddd88828901611ccc565b600181811c908216806121db57607f821691505b602082108114156121fc57634e487b7160e01b600052602260045260246000fd5b50919050565b634e487b7160e01b600052603260045260246000fd5b634e487b7160e01b600052601160045260246000fd5b600060001982141561224257612242612218565b5060010190565b60008282101561225b5761225b612218565b500390565b6000821982111561227357612273612218565b500190565b60408152600061228b6040830185612018565b828103602084015261229d8185612018565b95945050505050565b60006001600160a01b03808816835280871660208401525060a060408301526122d260a0830186612018565b82810360608401526122e48186612018565b905082810360808401526122f88185611b50565b98975050505050505050565b60006020828403121561231657600080fd5b8151611b3081611afa565b600060033d111561233a5760046000803e5060005160e01c5b90565b600060443d101561234b5790565b6040516003193d81016004833e81513d67ffffffffffffffff816024840111818411171561237b57505050505090565b82850191508151818111156123935750505050505090565b843d87010160208285010111156123ad5750505050505090565b6123bc60208286010187611c0a565b509095945050505050565b60006001600160a01b03808816835280871660208401525084604083015283606083015260a060808301526123ff60a0830184611b50565b97965050505050505056fea264697066735822122003e4615857428b0a5c629e0d5cd5cce2f1468d8e548c48ed1ade54001407438364736f6c63430008090033",
    "linkReferences": {},
    "deployedLinkReferences": {}
}